{
  "_format": "hh-sol-artifact-1",
  "contractName": "DutchAuction",
  "sourceName": "contracts/DutchAuction.sol",
  "abi": [
    {
      "inputs": [
        {
          "internalType": "uint256",
          "name": "_startingPrice",
          "type": "uint256"
        },
        {
          "internalType": "uint256",
          "name": "_discountRate",
          "type": "uint256"
        },
        {
          "internalType": "string",
          "name": "_item",
          "type": "string"
        }
      ],
      "stateMutability": "nonpayable",
      "type": "constructor"
    },
    {
      "anonymous": false,
      "inputs": [
        {
          "indexed": false,
          "internalType": "uint256",
          "name": "price",
          "type": "uint256"
        },
        {
          "indexed": false,
          "internalType": "address",
          "name": "buyer",
          "type": "address"
        }
      ],
      "name": "Bought",
      "type": "event"
    },
    {
      "inputs": [],
      "name": "buy",
      "outputs": [],
      "stateMutability": "payable",
      "type": "function"
    },
    {
      "inputs": [],
      "name": "discountRate",
      "outputs": [
        {
          "internalType": "uint256",
          "name": "",
          "type": "uint256"
        }
      ],
      "stateMutability": "view",
      "type": "function"
    },
    {
      "inputs": [],
      "name": "endsAt",
      "outputs": [
        {
          "internalType": "uint256",
          "name": "",
          "type": "uint256"
        }
      ],
      "stateMutability": "view",
      "type": "function"
    },
    {
      "inputs": [],
      "name": "getPrice",
      "outputs": [
        {
          "internalType": "uint256",
          "name": "",
          "type": "uint256"
        }
      ],
      "stateMutability": "view",
      "type": "function"
    },
    {
      "inputs": [],
      "name": "item",
      "outputs": [
        {
          "internalType": "string",
          "name": "",
          "type": "string"
        }
      ],
      "stateMutability": "view",
      "type": "function"
    },
    {
      "inputs": [],
      "name": "nextBlock",
      "outputs": [
        {
          "internalType": "uint256",
          "name": "",
          "type": "uint256"
        }
      ],
      "stateMutability": "view",
      "type": "function"
    },
    {
      "inputs": [],
      "name": "seller",
      "outputs": [
        {
          "internalType": "address payable",
          "name": "",
          "type": "address"
        }
      ],
      "stateMutability": "view",
      "type": "function"
    },
    {
      "inputs": [],
      "name": "startAt",
      "outputs": [
        {
          "internalType": "uint256",
          "name": "",
          "type": "uint256"
        }
      ],
      "stateMutability": "view",
      "type": "function"
    },
    {
      "inputs": [],
      "name": "startPrice",
      "outputs": [
        {
          "internalType": "uint256",
          "name": "",
          "type": "uint256"
        }
      ],
      "stateMutability": "view",
      "type": "function"
    },
    {
      "inputs": [],
      "name": "stopped",
      "outputs": [
        {
          "internalType": "bool",
          "name": "",
          "type": "bool"
        }
      ],
      "stateMutability": "view",
      "type": "function"
    }
  ],
  "bytecode": "0x6101206040523480156200001257600080fd5b506040516200111438038062001114833981810160405281019062000038919062000251565b6202a30082620000499190620003d6565b8310156200008e576040517f08c379a00000000000000000000000000000000000000000000000000000000081526004016200008590620002e7565b60405180910390fd5b3373ffffffffffffffffffffffffffffffffffffffff1660808173ffffffffffffffffffffffffffffffffffffffff1660601b815250508260a081815250508161010081815250504260c081815250506202a30042620000ef919062000379565b60e0818152505080600090805190602001906200010e92919062000118565b50505050620005c4565b828054620001269062000477565b90600052602060002090601f0160209004810192826200014a576000855562000196565b82601f106200016557805160ff191683800117855562000196565b8280016001018555821562000196579182015b828111156200019557825182559160200191906001019062000178565b5b509050620001a59190620001a9565b5090565b5b80821115620001c4576000816000905550600101620001aa565b5090565b6000620001df620001d98462000332565b62000309565b905082815260208101848484011115620001f857600080fd5b6200020584828562000441565b509392505050565b600082601f8301126200021f57600080fd5b815162000231848260208601620001c8565b91505092915050565b6000815190506200024b81620005aa565b92915050565b6000806000606084860312156200026757600080fd5b600062000277868287016200023a565b93505060206200028a868287016200023a565b925050604084015167ffffffffffffffff811115620002a857600080fd5b620002b6868287016200020d565b9150509250925092565b6000620002cf600e8362000368565b9150620002dc8262000581565b602082019050919050565b600060208201905081810360008301526200030281620002c0565b9050919050565b60006200031562000328565b9050620003238282620004ad565b919050565b6000604051905090565b600067ffffffffffffffff82111562000350576200034f62000541565b5b6200035b8262000570565b9050602081019050919050565b600082825260208201905092915050565b6000620003868262000437565b9150620003938362000437565b9250827fffffffffffffffffffffffffffffffffffffffffffffffffffffffffffffffff03821115620003cb57620003ca620004e3565b5b828201905092915050565b6000620003e38262000437565b9150620003f08362000437565b9250817fffffffffffffffffffffffffffffffffffffffffffffffffffffffffffffffff04831182151516156200042c576200042b620004e3565b5b828202905092915050565b6000819050919050565b60005b838110156200046157808201518184015260208101905062000444565b8381111562000471576000848401525b50505050565b600060028204905060018216806200049057607f821691505b60208210811415620004a757620004a662000512565b5b50919050565b620004b88262000570565b810181811067ffffffffffffffff82111715620004da57620004d962000541565b5b80604052505050565b7f4e487b7100000000000000000000000000000000000000000000000000000000600052601160045260246000fd5b7f4e487b7100000000000000000000000000000000000000000000000000000000600052602260045260246000fd5b7f4e487b7100000000000000000000000000000000000000000000000000000000600052604160045260246000fd5b6000601f19601f8301169050919050565b7f707269636520746f6f206c6f7721000000000000000000000000000000000000600082015250565b620005b58162000437565b8114620005c157600080fd5b50565b60805160601c60a05160c05160e05161010051610ae56200062f6000396000818161030a01526105ae01526000818161024901526103ba0152600081816102d9015261058a01526000818161033801526105d201526000818161022501526104cc0152610ae56000f3fe6080604052600436106100915760003560e01c8063a6f2ae3a11610059578063a6f2ae3a1461016d578063c744656514610177578063e6c0e6d5146101a2578063f1a9af89146101cd578063f2a4a82e146101f857610091565b806308551a53146100965780630a09284a146100c157806375f12b21146100ec57806383788fce1461011757806398d5fdca14610142575b600080fd5b3480156100a257600080fd5b506100ab610223565b6040516100b89190610760565b60405180910390f35b3480156100cd57600080fd5b506100d6610247565b6040516100e39190610818565b60405180910390f35b3480156100f857600080fd5b5061010161026b565b60405161010e919061077b565b60405180910390f35b34801561012357600080fd5b5061012c61027e565b6040516101399190610818565b60405180910390f35b34801561014e57600080fd5b50610157610283565b6040516101649190610818565b60405180910390f35b610175610368565b005b34801561018357600080fd5b5061018c610588565b6040516101999190610818565b60405180910390f35b3480156101ae57600080fd5b506101b76105ac565b6040516101c49190610818565b60405180910390f35b3480156101d957600080fd5b506101e26105d0565b6040516101ef9190610818565b60405180910390f35b34801561020457600080fd5b5061020d6105f4565b60405161021a9190610796565b60405180910390f35b7f000000000000000000000000000000000000000000000000000000000000000081565b7f000000000000000000000000000000000000000000000000000000000000000081565b600160009054906101000a900460ff1681565b600090565b6000600160009054906101000a900460ff16156102d5576040517f08c379a00000000000000000000000000000000000000000000000000000000081526004016102cc906107f8565b60405180910390fd5b60007f00000000000000000000000000000000000000000000000000000000000000004261030391906108d2565b90506000817f00000000000000000000000000000000000000000000000000000000000000006103339190610878565b9050807f000000000000000000000000000000000000000000000000000000000000000061036191906108d2565b9250505090565b600160009054906101000a900460ff16156103b8576040517f08c379a00000000000000000000000000000000000000000000000000000000081526004016103af906107f8565b60405180910390fd5b7f0000000000000000000000000000000000000000000000000000000000000000421061041a576040517f08c379a0000000000000000000000000000000000000000000000000000000008152600401610411906107d8565b60405180910390fd5b6000610424610283565b905080341015610469576040517f08c379a0000000000000000000000000000000000000000000000000000000008152600401610460906107b8565b60405180910390fd5b6000813461047791906108d2565b905060008111156104ca573373ffffffffffffffffffffffffffffffffffffffff166108fc829081150290604051600060405180830381858888f193505050501580156104c8573d6000803e3d6000fd5b505b7f000000000000000000000000000000000000000000000000000000000000000073ffffffffffffffffffffffffffffffffffffffff166108fc479081150290604051600060405180830381858888f19350505050158015610530573d6000803e3d6000fd5b5060018060006101000a81548160ff0219169083151502179055507fc54c8cc1c7525b424ec71b685c00d9355581a280488018c22005332ceb2fd406823360405161057c929190610833565b60405180910390a15050565b7f000000000000000000000000000000000000000000000000000000000000000081565b7f000000000000000000000000000000000000000000000000000000000000000081565b7f000000000000000000000000000000000000000000000000000000000000000081565b6000805461060190610993565b80601f016020809104026020016040519081016040528092919081815260200182805461062d90610993565b801561067a5780601f1061064f5761010080835404028352916020019161067a565b820191906000526020600020905b81548152906001019060200180831161065d57829003601f168201915b505050505081565b61068b81610918565b82525050565b61069a81610906565b82525050565b6106a98161092a565b82525050565b60006106ba8261085c565b6106c48185610867565b93506106d4818560208601610960565b6106dd81610a23565b840191505092915050565b60006106f5600883610867565b915061070082610a34565b602082019050919050565b6000610718600983610867565b915061072382610a5d565b602082019050919050565b600061073b601483610867565b915061074682610a86565b602082019050919050565b61075a81610956565b82525050565b60006020820190506107756000830184610682565b92915050565b600060208201905061079060008301846106a0565b92915050565b600060208201905081810360008301526107b081846106af565b905092915050565b600060208201905081810360008301526107d1816106e8565b9050919050565b600060208201905081810360008301526107f18161070b565b9050919050565b600060208201905081810360008301526108118161072e565b9050919050565b600060208201905061082d6000830184610751565b92915050565b60006040820190506108486000830185610751565b6108556020830184610691565b9392505050565b600081519050919050565b600082825260208201905092915050565b600061088382610956565b915061088e83610956565b9250817fffffffffffffffffffffffffffffffffffffffffffffffffffffffffffffffff04831182151516156108c7576108c66109c5565b5b828202905092915050565b60006108dd82610956565b91506108e883610956565b9250828210156108fb576108fa6109c5565b5b828203905092915050565b600061091182610936565b9050919050565b600061092382610936565b9050919050565b60008115159050919050565b600073ffffffffffffffffffffffffffffffffffffffff82169050919050565b6000819050919050565b60005b8381101561097e578082015181840152602081019050610963565b8381111561098d576000848401525b50505050565b600060028204905060018216806109ab57607f821691505b602082108114156109bf576109be6109f4565b5b50919050565b7f4e487b7100000000000000000000000000000000000000000000000000000000600052601160045260246000fd5b7f4e487b7100000000000000000000000000000000000000000000000000000000600052602260045260246000fd5b6000601f19601f8301169050919050565b7f746f6f206c6f7721000000000000000000000000000000000000000000000000600082015250565b7f746f6f206c617465210000000000000000000000000000000000000000000000600082015250565b7f68617320616c72656164792073746f707065642100000000000000000000000060008201525056fea2646970667358221220e056cd03df624f1cd044f47fdc631964e342e47667ef89a9728ffb0972896d1764736f6c63430008040033",
  "linkReferences": {},
  "deployedLinkReferences": {}
}